:100000000C944D000C946A000C946A000C946A00E5
:100010000C946A000C946A000C946A000C946A00B8
:100020000C946A000C946A000C946A000C94D00240
:100030000C946A000C946A000C946A000C946A0098
:100040000C94FE010C946A000C946A000C946A00F3
:100050000C946A000C946A000C946A000C946A0078
:100060000C9421030C946A000C9430030C946A00E5
:100070000C946A000C946A000C946A008501880153
:100080008B018E01910194019701040607060A066F
:100090000D06100613061606190611241FBECFEF13
:1000A000D0E1DEBFCDBF19E0A0E0B1E0ECE4FCE3BD
:1000B00002C005900D92A039B107D9F72EE0A0E952
:1000C000B9E001C01D92A834B207E1F70E94120EF8
:1000D0000C94241E0C9400008DE880937A0080E438
:1000E00080937C0008950895EAE7F0E080818064C1
:1000F00080830895809178009091790008956AE056
:100100000E94B61C20E1829F900D1124892F089532
:10011000982F92959F708F702AE0929F800D1124E6
:1001200008958091A80982608093A809089580911C
:10013000A80981608093A80908958091A809982F43
:100140009695969519F481110C940E0E0895809150
:10015000A80981FF63C082FD61C088608093A809FF
:10016000809191098130B1F028F0823011F1833013
:10017000B1F154C082E00E94CB0D813009F043C040
:100180008091300E8F770E9488008C3300F5809329
:10019000CA091DC083E00E94CB0D8130A1F580917A
:1001A000300E8F770E9488008C3388F48093CB09BF
:1001B0000EC084E00E94CB0D813029F58091300E75
:1001C0008F730E948800883110F48093CC090E94BC
:1001D0000E0E809191098F5F809391091FC086E078
:1001E0000E94CB0D813079F49091300E977097304A
:1001F00011F09093CD099091A809957F9093A8094B
:10020000109291090895823051F48091A809857F58
:100210008093A8091092910981E0089580E00895E3
:100220008091A80980FF45C083FD43C0846080930E
:10023000A80980919009813069F028F0823089F016
:10024000833021F136C08091CE090E947F00682F53
:1002500082E00DC08091CF090E947F00682F83E06B
:1002600006C08091D0090E947F00682F84E00E9420
:10027000810D813041F40E940E0E809190098F5FB4
:100280008093900916C08230A9F40AC06091D10908
:10029000677086E00E94810D9FEF980F923050F4B6
:1002A0008091A8098A7F8093A8091092900981E023
:1002B000089580E00895811104C00E94A7000E9463
:1002C00010010C949D00CF93DF93CDB7DEB7C054DF
:1002D000D1090FB6F894DEBF0FBECDBF86E091E026
:1002E0000E94E81889E091E00E94E81885E391E017
:1002F0000E94E8188091CD0990E087309105D8F4EC
:10030000FC01E25CFF4F0C94F81C8FE793E011C0F6
:1003100088E993E00EC081EB93E00BC08BEC93E097
:1003200008C087EE93E005C082E094E002C08BE154
:1003300094E00E94E81884E491E00E94E81880911B
:10034000CA094AE0BE016F5F7F4F90E00E94C01D66
:100350000E94E81880E591E00E94E8188091CB099E
:100360004AE0BE016F5F7F4F90E00E94C01D0E9477
:10037000E8188CE591E00E94E8188091CC094AE0E9
:10038000BE016F5F7F4F90E00E94C01D0E94E81881
:10039000C05CDF4F0FB6F894DEBF0FBECDBFDF915C
:1003A000CF91089523983C9A3B9A3A9A219A0B98B8
:1003B0003D9A0C9A0D9A50985298539856982298B4
:1003C000089534983398329848984A984B984E98A4
:1003D00008952B9A2C982D982E982F9844984398EE
:1003E000429829984598149A159A139A2A9A08952A
:1003F0000E94D2010E94E9010C94E1011F920F9228
:100400000FB60F9211242F933F934F935F936F93E7
:100410008F939F93AF93BF93EF93FF933091FD0D15
:100420002091FC0D8091980990919909E091E8093B
:10043000F0E0303131F520FF13C0FE2FEE27FF0F23
:10044000E450F64FE80FF91F2181205820939709B7
:1004500004969093990980939809838180583CC0B1
:100460009C012E5F3F4F3093990920939809FE2FEE
:10047000EE27FF0FE450F64FE80FF91F81818058F7
:1004800011C020FD12C09C012F5F3F4F309399098E
:1004900020939809FE2FEE27FF0FE80FF91FE45075
:1004A000F64F80818093970917C0FE2FEE27FF0F2C
:1004B000DF01A80FB91FA450B64F2C9120939709C4
:1004C0009C012E5F3F4F3093990920939809E45087
:1004D000F64FE80FF91F81818093960930919709B3
:1004E000632F669540919609542F5695232F269594
:1004F0002695842F869586959091B5099230A9F01E
:1005000040F4913051F530E0309389002093880019
:100510001FC0933091F0943001F5232F30E03093D9
:10052000890020938800842F13C0262F30E0309359
:10053000890020938800852F0BC030E0260F311DE5
:10054000309389002093880090E0850F911D01C0B1
:1005500090E090938B0080938A008091980990910D
:1005600099098115924060F01092990910929809AA
:1005700091E09093FB098091E80989278093E8092D
:10058000FF91EF91BF91AF919F918F916F915F918B
:100590004F913F912F910F900FBE0F901F90189584
:1005A0001F920F920FB60F9211242F933F934F93E8
:1005B0005F936F937F938F939F93AF93BF93EF93CB
:1005C000FF938091940990919509C29738F0109209
:1005D00095091092940981E08093BD098091920958
:1005E00090919309883E934038F0109293091092AD
:1005F000920981E08093C9098091940990919509AD
:100600000196909395098093940980919209909115
:100610009309019690939309809392090E944A0D41
:10062000FF91EF91BF91AF919F918F917F916F91CA
:100630005F914F913F912F910F900FBE0F901F90A0
:1006400018951F920F920FB60F9211248F9381E08D
:100650008093C0098F910F900FBE0F901F90189537
:100660001F920F920FB60F9211242F933F934F9327
:100670005F936F937F938F939F93AF93BF93EF930A
:10068000FF9380E090E00E945B01FF91EF91BF91AA
:10069000AF919F918F917F916F915F914F913F911A
:1006A0002F910F900FBE0F901F9018958091BF094A
:1006B000813021F4199902C0299A08952998089542
:1006C0008091A909813041F028F0823049F08330CF
:1006D00051F016C0439A05C0439A4498429A10C0FC
:1006E0004398449AFBCF439A449A80919A09843064
:1006F00038F0329B02C0429801C0429A10929A0987
:1007000080919A098F3F11F410929A0980919A0969
:100710008F5F80939A090895CF92DF92EF92FF92B4
:100720000F93CF93C091C009C13009F04FC08091A1
:10073000C50981114BC00E947A00C0909C09D090DD
:100740009D09E0909E09F0909F09C80ED91EE11CFA
:10075000F11CC0929C09D0929D09E0929E09F092F2
:100760009F0900919B090A3010F1202F30E040E0F2
:1007700050E0C701B6010E94D61C253D83E0380732
:100780004105510518F01092C80907C022353340C1
:100790004105510510F4C093C80910929C091092AC
:1007A0009D0910929E0910929F0910929B09109228
:1007B000C00980919B098F5F80939B09CF910F9116
:1007C000FF90EF90DF90CF900C947400CF910F9139
:1007D000FF90EF90DF90CF9008950895CF93DF932F
:1007E000EC010E94661DBE010E94C21CDF91CF91E8
:1007F00008959FE9980F9A3108F480520895FF9266
:100800000F931F93CF93DF938C01EB01F80181913C
:100810008F01882351F00E94F903F82E89910E94DC
:10082000F903F81699F380E004C098819111F3CF91
:1008300081E0DF91CF911F910F91FF900895EF928A
:10084000FF920F931F93CF93DF934423A1F08C016A
:10085000EB01F80181918F018823A9F0F990FF2025
:1008600091F00E94F903E82E8F2D0E94F903E816FB
:1008700081F380E009C0DF91CF911F910F91FF902C
:10088000EF900C94FF0381E0DF91CF911F910F91C6
:10089000FF90EF900895AF92BF92CF92DF92EF92C8
:1008A000FF920F931F93CF93DF93CDB7DEB7C05462
:1008B000D1090FB6F894DEBF0FBECDBF5C018B012E
:1008C00066E671E00E94FF038823E9F08DE691E07F
:1008D0000E94E818C8010E94E818EAEAF9E01192BB
:1008E00089E0E43BF807D9F78AE0F801AAEAB9E021
:1008F00001900D928A95E1F7C12CD12CF0E8EF2EF2
:10090000FFE3FF2E03C0C12CD12C760162E871E019
:10091000C5010E94FF038823D1F0C8010E94761D03
:100920008093B4098BE891E00E94E8188091B409A3
:100930004AE0BE016F5F7F4F90E00E94C01D0E94A1
:10094000E818C12CD12CE0E8EE2EEFE3FE2E6AE988
:1009500071E0C5010E94FF038823D1F0C8010E9405
:10096000761D8093B50981EA91E00E94E818809194
:10097000B5094AE0BE016F5F7F4F90E00E94C01D45
:100980000E94E818C12CD12C70E8E72E7FE3F72EE7
:100990006EEA71E0C5010E94FF038823D1F0C8010F
:1009A0000E94761D8093B8098AEB91E00E94E818B6
:1009B0008091B8094AE0BE016F5F7F4F90E00E94CE
:1009C000C01D0E94E818C12CD12C60E8E62E6FE310
:1009D000F62E6CEC71E0C5010E94FF038823D1F074
:1009E000C8010E94761D8093B70988ED91E00E94AE
:1009F000E8188091B7094AE0BE016F5F7F4F90E031
:100A00000E94C01D0E94E818C12CD12C50E8E52E90
:100A10005FE3F52E6AEE71E0C5010E94FF038823B3
:100A200069F16FEF71E0C8010E94FF03882329F08C
:100A30001092B60982EF91E019C061E172E0C8013D
:100A40000E94FF03882331F081E08093B60984E09F
:100A500092E00CC067E272E0C8010E94FF038823A5
:100A600039F082E08093B6098AE192E00E94E818AA
:100A7000C12CD12C40E8E42E4FE3F42E6DEE72E051
:100A8000C5010E94FF03882369F169E372E0C80190
:100A90000E94FF03882329F01092B9098EE292E0A8
:100AA00019C06BE472E0C8010E94FF03882331F093
:100AB00081E08093B90980E492E00CC062E572E0C5
:100AC000C8010E94FF03882339F082E08093B909AE
:100AD0008BE592E00E94E818C12CD12C30E8E32E7F
:100AE0003FE3F32E6FE672E0C5010E94FF03882307
:100AF00001F169E372E0C8010E94FF03882329F035
:100B00001092BA0989E792E00CC06BE472E0C80168
:100B10000E94FF03882339F081E08093BA098FE8AF
:100B200092E00E94E818C12CD12C20E8E22E2FE39D
:100B3000F22E65EA72E0C5010E94FF03882301F1ED
:100B40006CED72E0C8010E94FF03882329F0109227
:100B5000BB098BEA92E00CC069EE72E0C8010E940A
:100B6000FF03882339F082E08093BB098AEB92E08F
:100B70000E94E818C12CD12C90E8E92E9FE3F92EB1
:100B80006FEC72E0C5010E94FF03882301F16CED58
:100B900072E0C8010E94FF03882329F01092BC096B
:100BA00083ED92E00CC069EE72E0C8010E94FF0381
:100BB000882339F082E08093BC0980EE92E00E94A5
:100BC000E818C12CD12C80E8E82E8FE3F82EC7015D
:100BD000B601C05CDF4F0FB6F894DEBF0FBECDBFCD
:100BE000DF91CF911F910F91FF90EF90DF90CF9009
:100BF000BF90AF90089590E088309105F0F4FC012B
:100C0000EB5BFF4F0C94F81C83EF92E014C08CEF69
:100C100092E011C08BE093E00EC08BE193E00BC03B
:100C200089E293E008C087E393E005C088E493E09D
:100C300002C08AE593E00C94E8180895AF92BF9241
:100C4000CF92DF92EF92FF920F931F93CF93DF9398
:100C5000CDB7DEB7C154D1090FB6F894DEBF0FBED1
:100C6000CDBF5C018B016AE272E00E94FF03882322
:100C700009F45CC060E873E0C8010E94FF038823A8
:100C800029F01092D1098EE693E019C069E973E06A
:100C9000C8010E94FF03882331F081E08093D109CD
:100CA00087E893E00CC062EB73E0C8010E94FF0389
:100CB000882341F082E08093D10980EA93E00E948A
:100CC000E81838C06CEC73E0C8010E94FF03882369
:100CD00031F083E08093D1098AEB93E0F0CF68EEA6
:100CE00073E0C8010E94FF03882331F084E0809301
:100CF000D10986ED93E0E3CF63E074E0C8010E9480
:100D0000FF03882331F085E08093D10981EF93E0E0
:100D1000D6CF6CE174E0C8010E94FF03882351F034
:100D200086E08093D1098AE094E0C9CFC12CD12C10
:100D3000760106C0C12CD12C80E8E82E8FE3F82E76
:100D400065E274E0C5010E94FF038823D1F0C80169
:100D50000E94761D8093D0098AE294E00E94E818F0
:100D60008091D0094AE0BE016F5F7F4F90E00E9402
:100D7000C01D0E94E818C12CD12CB0E8EB2EBFE3B7
:100D8000FB2E61ED71E0C5010E94FF03882309F489
:100D900046C0C8010E94761D8093CF0985E394E088
:100DA0000E94E8188091CF094AE0BE016F5F7F4F33
:100DB00090E00E94C01D0E94E8181092CE090E9487
:100DC000970081E090E00E945B0182E494E00E9441
:100DD000E81860E070E0CB010E943E168C0188E5C7
:100DE00094E00E94E818802F0E94FB05012B89F4F3
:100DF000AE014F5B5F4F61E270E084E694E00E94D9
:100E00003815182F80E994E00E94E818812F0E947D
:100E1000FB05C12CD12CA0E8EA2EAFE3FA2EC701C6
:100E2000B601CF5BDF4F0FB6F894DEBF0FBECDBF6C
:100E3000DF91CF911F910F91FF90EF90DF90CF90B6
:100E4000BF90AF9008950F931F93CF93DF93CDB7CB
:100E5000DEB7CE51D1400FB6F894DEBF0FBECDBF86
:100E60008091C409813009F0BBC083EF94E00E94F7
:100E700000148C018CE994E00E94E818802F0E94F5
:100E8000FB05012B09F0ACC060911A0E70911B0E8E
:100E9000AE01425E5E4FCE0101960E9464148C0149
:100EA00087EA94E00E94E818802F0E94FB05012B3E
:100EB00009F096C082EB94E00E94E81820E030E050
:100EC000C25EDE4F4881CE51D14050E02417350735
:100ED00008F070C0C15FDE4F1882CF50D140C050C3
:100EE000DF4F1882C050D14070E080E090E0E1E038
:100EF000F0E0EC0FFD1FE20FF31F608189010F5F2F
:100F00001F4F6A3051F4772381F1E0E0F1E0EC0FFC
:100F1000FD1FE80FF91F108234C02417350798F71A
:100F200020EE260F2F35F8F46D3359F4EFE0F1E0A1
:100F3000EC0FFD1FE80FF91F108271E080E090E0D8
:100F400012C0772319F0E0E0F1E002C0EFE0F1E039
:100F5000EC0FFD1FE80FF91F6083019680349105A7
:100F600010F08FE390E09801C2CFEFE0F1E0EC0FDA
:100F7000FD1FE80FF91F1082C050DF4F1882C050CC
:100F8000D140C15FDE4F8881CF50D140882381F0AE
:100F9000C050DF4F9881C050D140992349F08B3326
:100FA00039F0BE017395CE01815F9E4F0E944B04C4
:100FB000980186CF2091B7098091B80990E03CE371
:100FC000239F800D911D11249093C7098093C6091A
:100FD00082EB94E00E94E81885EE94E00E94E81805
:100FE000C25EDE4F0FB6F894DEBF0FBECDBFDF91FD
:100FF000CF911F910F910895EF92FF920F931F933E
:10100000CF93DF93CDB7DEB7CE51D1400FB6F89472
:10101000DEBF0FBECDBF8091C409813009F0B8C0DA
:101020008EEF94E00E94E81880E195E00E940014A1
:101030008C018CE994E00E94E818802F0E94FB0547
:10104000012BE9F460911A0E70911B0EAE01425E05
:101050005E4FCE0101960E9464148C0187EA94E0F1
:101060000E94E818802F0E94FB05012B09F090C018
:1010700080E395E00E94E81800E010E030C089E1CC
:1010800095E00E94E81884C00217130790F460EE00
:10109000640F6F35E0F18701E1E0F0E0EC0FFD1F38
:1010A000E00FF11F4081B8016F5F7F4F7B014A3035
:1010B00059F7552309F44CC0E0E0F1E0EC0FFD1FB7
:1010C000E80FF91F1082C15FDE4F8881CF50D140F9
:1010D00081114BC0870187E695E00E94E818C25E47
:1010E000DE4F2881CE51D14030E00217130708F0BF
:1010F0004FC0C15FDE4F1882CF50D140C050DF4F8C
:101100001882C050D14050E080E090E0C5CF4D3310
:1011100059F4EFE0F1E0EC0FFD1FE80FF91F10822A
:1011200051E080E090E0B7CF552319F0E0E0F1E026
:1011300002C0EFE0F1E0EC0FFD1FE80FF91F408364
:1011400001968034910508F4A6CF8FE390E0A3CFF9
:10115000EFE0F1E0EC0FFD1FE80FF91F1082C05027
:10116000DF4F1882C050D140AECFC050DF4F9881C2
:10117000C050D140992309F4ADCF8B3309F4AACFE5
:10118000BE017395CE01815F9E4F0E941E06A2CFC5
:10119000C25EDE4F0FB6F894DEBF0FBECDBFDF914B
:1011A000CF911F910F91FF90EF9008952F923F9252
:1011B0004F925F926F927F928F929F92AF92BF9267
:1011C000CF92DF92EF92FF920F931F93CF93DF9313
:1011D000CDB7DEB7CC59D3400FB6F894DEBF0FBE03
:1011E000CDBF8CE995E00E94E8188091C409813058
:1011F00009F07CC184EC95E00E94E8186EE978E083
:101200008BEE99E00E946A170E94FB0584E096E04D
:101210000E9400148C018CE994E00E94E818802F51
:101220000E94FB0587EE95E00E94E8184AE0BE01A7
:10123000675A7D4F80911A0E90911B0E0E94C01D1F
:101240000E94E818012B41F53E0187E6681A8CEFF1
:10125000780AA30168EC70E0CE0101960E94641444
:101260008C0187EA94E00E94E818802F0E94FB0519
:10127000012B09F03BC1FE01E75AFC4F9E01275E9E
:101280003C4FCE0187529D4FAE0147565D4F8F01B7
:1012900069015C017A0103C086EF95E025C11192D6
:1012A000D9011D929D01DC011D92CD01DA011D9233
:1012B000AD01E615F70599F780E196E00E94E81880
:1012C000812C912CF30180819181A281B381A401B1
:1012D00060E070E0481759076A077B0708F002C111
:1012E000F8011082F6011082F5011082F7011082D8
:1012F00040E020E030E0E1E0F0E0EC0FFD1FE80D21
:10130000F91D5081B4016F5F7F4F5A3031F4433083
:10131000A9F5F701E20FF31F4DC01401412C512C28
:10132000281639064A065B0690F7E0EEE50FEF3522
:1013300018F55A3341F44F5FF601E20FF31F1082A4
:1013400020E030E019C0433011F4F7010BC0423007
:1013500011F4F50107C0413011F4F60103C0411149
:1013600004C0F801E20FF31F50832F5F3F4F20347A
:10137000310510F02FE330E04B01BDCF423021F4B6
:10138000F501E20FF31F07C0413049F4F601E20F07
:10139000F31F1082F5011082D7011C920CC041117D
:1013A0000AC0F801E20FF31F1082F6011082D50186
:1013B0001C92F70110824B016AE476E0C8010E949A
:1013C000FF03811103C067E0562E01C0512C61E577
:1013D00076E0C8010E94FF03882311F0552453943E
:1013E00068E576E0C8010E94FF03882311F052E00F
:1013F000552E60E676E0C8010E94FF03882311F0B5
:1014000043E0542E6AE676E0C8010E94FF03882379
:1014100011F034E0532E63E776E0C8010E94FF0329
:10142000882311F025E0522E6AE776E0C8010E9479
:10143000FF03882311F096E0592E8091CD09851184
:1014400041CF83E896E00E94E818C8010E94E8189E
:10145000C6010E94761D2091CC0930E0281739077B
:1014600009F030CF81E996E00E94E818C6010E9499
:10147000E818C5010E94761D2091CB0930E028179D
:10148000390709F01FCF80EA96E00E94E818C501ED
:101490000E94E818D7018C91882379F081EB96E0BF
:1014A0000E94E818C7010E94E81880E0E82FF0E0E9
:1014B000E25CF14F10828F5FF9CF88EC96E00E94DA
:1014C000E8188091BA09811103C081EE96E005C049
:1014D000813009F0F7CE81EF96E00E94E8180E9473
:1014E0005A1CF0CE81E097E00E94E818C456DC4F09
:1014F0000FB6F894DEBF0FBECDBFDF91CF911F9125
:101500000F91FF90EF90DF90CF90BF90AF909F90A2
:101510008F907F906F905F904F903F902F900895A5
:10152000CF93DF931B9B09C089E397E00E94E818E3
:1015300083E08093A9091092C4098091C4098111A4
:1015400020C01B991EC0CD2B69F080E09EE00E9458
:10155000AE12EC0187E497E00E94E8188C2F0E94FD
:10156000FB05F1CF83E697E00E94E81881E08093C5
:10157000C4098093A9090E942307DF91CF910C949D
:10158000FC07DF91CF9108950F931F93CF93DF93C3
:10159000CDB7DEB7C054D1090FB6F894DEBF0FBE89
:1015A000CDBF039B08C0489B06C04A9B04C04B9B11
:1015B00002C04E996EC003996CC048996AC04A999E
:1015C00068C04B9966C04E9964C080912E0E10E0A1
:1015D00081111DC003991BC01F5F8FE493EC01971D
:1015E000F1F700C00000EFE4F3EC3197F1F700C031
:1015F0000000143179F78FE997E00E94E81881E044
:1016000080932E0E80932F0E10E084E501C080E0C1
:1016100090912E0E911141C086E797E00E94E81844
:101620008091C209811138C00091BA09011115C019
:1016300082E08093A9090E9460030E945A1C81E005
:101640008093A9092091B7098091B80990E0FCE343
:101650002F9F800D911D112417C00130E9F482E005
:101660008093A9090E9460030E945A1C0093A90953
:101670002091B7098091B80990E03CE3239F800D49
:10168000911D11240E94EE039093C7098093C6090F
:1016900003C010E080E001C084E5039B69C0489B63
:1016A00067C04A9965C04B9963C04E9961C09091DB
:1016B0002E0E91111CC0489B1AC01F5FEFE4F3EC83
:1016C0003197F1F700C00000EFE4F3EC3197F1F748
:1016D00000C00000143179F78CEA97E00E94E81806
:1016E00081E080932E0E80932F0E10E080E5909184
:1016F0002E0E91113DC08BE797E00E94E818809173
:10170000C209811134C00091BA09011115C082E0EB
:101710008093A9090E9460030E945A1C81E0809373
:10172000A9092091B7098091B80990E0FCE32F9FA7
:10173000800D911D112417C00130C9F482E08093FF
:10174000A9090E9460030E945A1C0093A9092091D4
:10175000B7098091B80990E03CE3239F800D911D6B
:1017600011240E94EE039093C7098093C60980E577
:10177000039B4BC0489949C04A9B47C04B9945C001
:101780004E9943C090912E0E91111DC0143180F4DA
:101790004A9B19C01F5FEFE4F3EC3197F1F700C0EB
:1017A0000000EFE4F3EC3197F1F700C00000EECF5A
:1017B00089EB97E00E94E81881E080932E0E8093D9
:1017C0002F0E10E08CE490912E0E91111EC080E837
:1017D00097E00E94E8188091C209811104C081E05D
:1017E0008093C20902C01092C20985E897E00E9466
:1017F000E8188091C2094AE0BE016F5F7F4F90E018
:101800000E94C01D0E94E8188CE4039B48C04899C0
:1018100046C04A9944C04B9B42C04E9940C09091EB
:101820002E0E91111DC0143180F44B9B19C01F5F07
:10183000EFE4F3EC3197F1F700C00000EFE4F3ECD4
:101840003197F1F700C00000EECF86EC97E00E94E0
:10185000E81881E080932E0E80932F0E10E08BE22B
:1018600090912E0E91111BC085E997E00E94E81817
:101870008091B509843018F48F5F8093B50981EAAF
:1018800091E00E94E8188091B5094AE0BE016F5FBF
:101890007F4F90E00E94C01D0E94E8188BE2039BDE
:1018A00047C0489945C04A9943C04B9941C04E9B97
:1018B0003FC090912E0E91111CC0143180F44E9BAC
:1018C00018C01F5FEFE4F3EC3197F1F700C00000A0
:1018D000EFE4F3EC3197F1F700C00000EECF83EDB9
:1018E00097E00E94E81881E080932E0E80932F0EDF
:1018F0008DE290912E0E91111BC08AE997E00E9413
:10190000E8188091B509823018F081508093B509AC
:1019100081EA91E00E94E8188091B5094AE0BE0191
:101920006F5F7F4F90E00E94C01D0E94E8188DE21B
:10193000039910922E0EC05CDF4F0FB6F894DEBFF5
:101940000FBECDBFDF91CF911F910F910895CF931F
:10195000DF93CDB7DEB7C054D1090FB6F894DEBF20
:101960000FBECDBF8091B909823008F059C0809177
:10197000B609882369F0813029F48091C809813043
:1019800081F506C0823069F58091C809811129C0AE
:101990008091C509811133C08091C409813079F5E6
:1019A0008091C20981112BC08091C6099091C7090D
:1019B000009711F001971FC00E945A1C8091BA092C
:1019C000882379F08130D9F42091B7098091B80942
:1019D00090E03CE3239F800D911D11240E94EE03B3
:1019E0000AC02091B7098091B80990E03CE3239F99
:1019F000800D911D11249093C7098093C60980EE34
:101A000097E00E94E8184AE0BE016F5F7F4F809127
:101A1000C6099091C7090E94C01D0E94E81810C015
:101A2000823071F40E94910081E090E00E945B019D
:101A30000E9463018091CA09811102C00E94D608E8
:101A4000C05CDF4F0FB6F894DEBF0FBECDBFDF9195
:101A5000CF91089582E084BD15BC80936E000895F7
:101A600081EA8093800081E0809381000895E0EB1B
:101A7000F0E0808182608083E1EBF0E0808185602E
:101A8000808384E68093B200E0E7F0E080818160AB
:101A90008083089584E68093B200089588E080935F
:101AA000B800E9EBF0E080818C7F8083089580911D
:101AB000B900089585EA8093BC00089585E8809375
:101AC000BC00089585E98093BC000895ECEBF0E03C
:101AD00080818F7780830895ECEBF0E080818064D3
:101AE00080830895ECEBF0E080818F7B8083089504
:101AF0008093BB0085E88093BC0008958091BB0073
:101B000008959091B900983169F09832A1F0983019
:101B100099F582EA8093BB0085E88093BC008093AE
:101B2000BC0007C08093BB0085E88093BC000E9486
:101B3000660D80E0089580910401813039F460934E
:101B4000BB0085E88093BC000E94660D8091040173
:101B5000823059F485E98093BC000E94720D0E9486
:101B6000660D1092040181E001C080E090910401B3
:101B70009F5F90930401089585E98093BC000E94C3
:101B8000720D0E94660D8FE097E20197F1F700C099
:101B9000000081E008959091B9009832D9F040F4A6
:101BA0009031D1F0983169F0983079F582EA15C01A
:101BB0009035D9F0983501F1903439F50E946C0DCB
:101BC00005C08093BB0085E88093BC000E94660D31
:101BD00080E0089585EAF8CF83EA8093BB0085E82A
:101BE0008093BC008093BC00F3CF8091BB008093B6
:101BF000300E0E94720DECCF85E98093BC000E94EC
:101C0000720D0E94660D81E0089585E98093BC0005
:101C10000E94720D0E94660D82E0089585EA80930D
:101C2000BC0008950E94521B0E94F8010E942A0DD8
:101C30000E94300D0E94370D0E946C0080E00E94CF
:101C400073000E9474000E94A8180E944E0D7894A0
:101C50001092C5091092C2091092BF091092C409CE
:101C600083E08093A9090E9460032FE784E89EE146
:101C7000215080409040E1F700C000000E94C40A5B
:101C80008091BD09813041F40E9460030E94560397
:101C90000E948C031092BD098091C909813071F7AF
:101CA0000E94900A0E94A70C1092C909E7CF8FEFFB
:101CB0008EBD0DB407FEFDCF8EB508952C9A0C9401
:101CC000570ECF92DF92EF92FF92CF93C82F6A0107
:101CD0007B0187FF09C040E050E0BA0187E70E941E
:101CE000610E8230D0F5CF772C9A0E94570E2C9837
:101CF0000E94570ECEBD0DB407FEFDCF4F2D5527C8
:101D0000662777274EBD0DB407FEFDCFA7016627D6
:101D100077274EBD0DB407FEFDCF77276F2D5E2DC3
:101D20004D2D4EBD0DB407FEFDCFCEBC0DB407FE4C
:101D3000FDCFC03421F0C83421F081E003C085E933
:101D400001C087E88EBD0DB407FEFDCFCAE00E943A
:101D5000570E87FF02C0C150D1F7CF91FF90EF908F
:101D6000DF90CF9008950F931F93CF93DF9300D010
:101D7000CDB7DEB7AB01BC01411551056105710559
:101D800011F18091A20983FD07C039E0440F551F6E
:101D9000661F771F3A95D1F788E50E94610E811181
:101DA0003EC08FEF8EBD0DB407FEFDCF8EEF8EBD12
:101DB0000DB407FEFDCF80E092E09093A1098093DF
:101DC000A00980E02DC08091A0099091A109029600
:101DD000019710F01EBCFCCF0DB407FEFDCF0E9492
:101DE000570E8F71853019F081E090E011C008EE38
:101DF0001DEF0E94570E8F3F31F001151105A1F321
:101E000001501109F6CF81E090E0012B09F080E04C
:101E100089839A830E945E0E89819A8102C081E043
:101E200090E00F900F90DF91CF911F910F91089547
:101E3000EF92FF920F931F93CF93DF9300D000D0C8
:101E40001F92CDB7DEB72C9905C060E070E0CB01E2
:101E50000E94B30E14E60E94570E1150E1F740E0C5
:101E600050E0BA0180E40E94610E813009F058C050
:101E70004AEA51E060E070E088E40E94610E81303F
:101E800031F57E0185E0E80EF11C8E010F5F1F4FDA
:101E90000E94570EF80181938F01EE15FF05C1F7DF
:101EA0008B818130E9F58C818A3AD1F500EE1EE212
:101EB00040E050E060E070E489EE0E94610E88230B
:101EC000C9F1015011090115110591F729C040E030
:101ED00050E0BA0189EE0E94610E823020F452E097
:101EE000F52E99EE03C0FF24F39491E408EA11E67D
:101EF00040E050E0BA01892F9D830E94610E9D81D0
:101F0000882331F0015011090115110589F708C026
:101F100040E052E060E070E080E50E94610E8111D7
:101F2000F12CF092A2090E945E0E81E0FF20F1F0F8
:101F300080E01CC040E050E0BA018AE70E94610ED8
:101F40008111EECF8E010F5F1F4F0E94570EF801D7
:101F500081938F01EE15FF05C1F7898186FF03C0CC
:101F60006CE0F62EDECF44E0F42EDBCF0F900F9026
:101F70000F900F900F90DF91CF911F910F91FF90D5
:101F8000EF900895CF92DF92EF92FF920F931F93FD
:101F9000CF93DF937C01E9018091A20983FD07C003
:101FA000F9E0440F551F661F771FFA95D1F781E5B9
:101FB0000E94610E882319F0C1E0D0E035C0E0E353
:101FC000CE2EE5E7DE2E0E94570E8F3F39F481E0DA
:101FD000C81AD108C114D104B1F7EECF8E3F61F712
:101FE00072E0C72EDC2CC01AD10ACC1ADD0A209769
:101FF00029F4E114F10471F0E70104C00E94570EC6
:102000002197F5CF0E94570E8993015011090115B0
:102010001105C1F70E94570E81E0C81AD108C114FA
:10202000D104C1F7C0E0D0E00E945E0ECE01DF9186
:10203000CF911F910F91FF90EF90DF90CF90089577
:102040000097D9F0FC01480F591F4E175F07C9F0E0
:102050008091A0099091A109892B99F081918EBD61
:102060000DB407FEFDCF8091A0099091A1090197C1
:102070009093A1098093A009E8CFCB01BA010C94F9
:10208000B30E80E090E00895CF9360E070E0CB0164
:102090000E94B30EC4E6882339F060E070E0CB0103
:1020A0000E94B30EC150B9F7CF9108950F931F93BB
:1020B0009B01AC01E091A309F091A40922503109E0
:1020C0004109510986819781A085B1850297A109AF
:1020D000B109281739074A075B0768F4A281B0E005
:1020E0000E94FE1C0289138924893589600F711FA3
:1020F000821F931F03C060E070E0CB011F910F911E
:1021000008950F931F93FC01658970E0762F662771
:102110008489682BCB01A0E0B0E077276627038D88
:1021200010E0102F0027228D022B20E030E0602BE2
:10213000712B822B932B1F910F9108950F931F9357
:10214000CF93DF93EC01E091A309F091A4091982E8
:1021500018826C817D818E819F816130710581053E
:102160009105F9F006811781208531856017710787
:1021700082079307B0F4611571058105910521F47B
:102180006685778580899189688779878A879B8723
:102190000E9456106C877D878E879F8780E090E035
:1021A00002C081E090E0DF91CF911F910F910895DF
:1021B0000F931F93CF93DF9300D000D0CDB7DEB73E
:1021C000E091A309F091A4096230710581059105A0
:1021D00008F443C006811781208531856017710797
:1021E00082079307D0F520812330B9F59B012F7723
:1021F0003327220F331F220F331FAB01BC01B7E07F
:102200007695679557954795BA95D1F782859385C9
:10221000A485B585480F591F6A1F7B1F04E010E095
:10222000CE0101960E94C20F892BB9F42C816B81DB
:10223000862F90E0A0E0B0E077276627922B2981D7
:10224000622B0A8110E0102F002720E030E0602B85
:10225000712B822B932B9F7004C061E070E080E0B3
:1022600090E00F900F900F900F90DF91CF911F9102
:102270000F910895CF92DF92EF92FF920F931F93E9
:10228000CF93DF93EC01E090A309F090A4090881BB
:1022900019810F5F1F4F0115110519F483E090E0BC
:1022A00056C08C859D85AE85BF850097A105B1057B
:1022B000A9F398012F703327232B09F041C0019611
:1022C000A11DB11D8C879D87AE87BF8768857985E5
:1022D0008A859B85F701611571058105910531F4AA
:1022E0008481958108171907C8F62AC0228130E039
:1022F00021503109A801E4E056954795EA95E1F7A8
:1023000024233523232BE1F40E94D8106230710579
:1023100081059105D0F0F701C680D780E084F18473
:102320006C157D058E059F0508F0B8CF6887798705
:102330008A879B870E9456106C877D878E879F8730
:102340001983088380E090E002C081E090E0DF9193
:10235000CF911F910F91FF90EF90DF90CF90089554
:10236000CF92DF92EF92FF920F931F93CF93DF9361
:10237000EC016A017B0102E010E02EEF31E00E94E7
:10238000C20F892B01F5898190E0982F8827288139
:10239000822B85359A4AC9F422E530E0B701A601BF
:1023A000CE010E94C20F892B61F4298130E0322FC7
:1023B00022278881282B81E02634314439F480E0BB
:1023C00005C081E003C083E001C082E0DF91CF91CE
:1023D0001F910F91FF90EF90DF90CF9008959F9203
:1023E000AF92BF92CF92DF92EF92FF920F931F9323
:1023F000CF93DF93EC015B017A01FA0180814F5F9B
:102400005F4F8032C9F38F3209F47A011C821D823A
:102410001E821F82F7018081803238F4CE010E9433
:102420009E106C01F50110828CC000E2902EEA81B2
:10243000FB81DF01CF010B96A817B90711F09D9220
:10244000FBCF90E080E028E031E0380FD701A80F03
:10245000B11D8C918132D0F08F32C1F08E3209F4EF
:1024600055C0921798F487FF05C0A82FB0E0A05977
:10247000B84F8C914FE9480F4A3108F48052DF0180
:10248000A90FB11D8C939F5F832FDECFE30EF11C4C
:1024900091E0813208F090E09387CE010E949E1077
:1024A0006C01009709F04DC0288139812F703327C6
:1024B00015E0220F331F1A95E1F74C855D856E8577
:1024C0007F8500E210E0C5010E94C20F892B91F5C3
:1024D000F5018081882391F1438543FD10C00A8175
:1024E0001B81C501D8019801255F3F4FA217B30793
:1024F00099F0FC016191CF015D916517B9F3CE01AF
:102500000E943A11009781F26C011BC0283009F03B
:10251000BDCF98E02BE0B8CFF8018385811111C0C1
:1025200044FF0CC0C5010E9481106C837D838E83A3
:102530009F837DCFCC24C394D12C03C0B3E0CB2E9A
:10254000D12CC601DF91CF911F910F91FF90EF9099
:10255000DF90CF90BF90AF909F9008954F925F9281
:102560006F927F92AF92BF92CF92DF92EF92FF92E3
:102570000F931F93CF93DF93CDB7DEB7A8970FB616
:10258000F894DEBF0FBECDBF5C011092A40910927B
:10259000A3090E94180F80FD1CC140E050E0BA0161
:1025A000CE0101960E94B011813091F500E110E05A
:1025B0002EEB31E040E050E0BA01CE0101960E94DE
:1025C000C20F892B19F081E090E005C18D81811146
:1025D00003C086E090E0FFC08C854B84512C612CB9
:1025E000712C320155244424782A8985482A8A8509
:1025F00090E0982F8827A0E0B0E0482A592A6A2A5C
:102600007B2AB301A201CE0101960E94B01103C042
:10261000412C512C32018330B1F28111DACF04E226
:1026200010E02DE030E0B301A201CE0101960E943E
:10263000C20F892B41F62B8530E0322F22278A8565
:10264000282B40E050E02115310541055105A9F442
:102650008B8D2A8D422F50E060E070E033272227D7
:10266000582B888D282B898D90E0982F8827A0E003
:10267000B0E0282B392B4A2B5B2BAC81B0E00E94B9
:10268000FE1C6B017C010B8110E0102F00278A815A
:10269000082B20E030E0D301C201800F911FA21F60
:1026A000B31F8DA39EA3AFA3B8A7F501828793871D
:1026B000A487B587E981D5011296EC9312974E80D5
:1026C000512C542C44248D81482A15965C924E92AC
:1026D0001497888590E0982F88274F81842BA0E05D
:1026E000B0E00097A105B105A9F44F898E8990E06B
:1026F000A0E0B0E0DC0199278827B42B4C89842B1B
:102700004D8950E0542F442760E070E0842B952BD6
:10271000A62BB72B74E0569447947A95E1F7612C79
:10272000712CBC01CD01601B710B820B930B6C19DA
:102730007D098E099F0964197509860997092E2F4D
:1027400030E040E050E00E94D61C2E5F3F4F4F4FDC
:102750005F4FF5012683378340875187273F3F4FDF
:102760004105510508F435CF83E0D5018C932BA1A9
:102770008AA190E0A0E0B0E0DC0199278827B22B85
:1027800028A1822B49A150E0542F442760E070E03B
:10279000842B952BA62BB72BF50186879787A08BCB
:1027A000B18B8DA19EA1AFA1B8A5480E591E6A1E7E
:1027B0007B1E4C0C5D1C6E1C7F1C428A538A648AF3
:1027C000758A1182B092A409A092A30980E090E0DA
:1027D00002C082E090E0A8960FB6F894DEBF0FBE6C
:1027E000CDBFDF91CF911F910F91FF90EF90DF90C0
:1027F000CF90BF90AF907F906F905F904F90089573
:102800000F931F93CF93DF93CDB7DEB7EC970FB63F
:10281000F894DEBF0FBECDBF0091A3091091A409AB
:102820000115110509F441C0F80111829E012F5CC8
:102830003F4F3CA32BA3AC01BE016F5F7F4FCE0186
:1028400081960E94EF110097A1F58981882379F183
:102850008C8584FD2CC0CE0101960E948110F80168
:10286000668F778F80A391A328A18F8D90E0A0E041
:10287000B0E0DC0199278827B22B2D8D822B4E8D5D
:1028800050E0542F442760E070E0842B952BA62B5A
:10289000B72B828F938FA48FB58F168A178A108ECD
:1028A000118E81E0818380E003C085E001C083E078
:1028B00090E0EC960FB6F894DEBF0FBECDBFDF916F
:1028C000CF911F910F9108954F925F926F927F92D7
:1028D0008F929F92AF92BF92CF92DF92EF92FF9230
:1028E0000F931F93CF93DF934C017B015A01C0914B
:1028F000A309D091A409FA0111821082209709F44A
:10290000A1C0898180FFA1C08A8D9B8DAC8DBD8DBA
:102910004E895F89688D798D841B950BA60BB70B4B
:10292000A70160E070E084179507A607B70708F4D1
:102930007C013401412CF2E05F2EE114F10409F432
:102940007EC08E899F89A88DB98DAC01BD01517063
:1029500066277727452B462B472BD1F5DA80DA946B
:10296000AC01BD01E9E07695679557954795EA95E5
:10297000D1F7D422C1F4892B8A2B8B2B29F46E8DAD
:102980007F8D88A199A106C06AA17BA18CA19DA180
:102990000E94D8106230710581059105A0F16AA3EB
:1029A0007BA38CA39DA36AA17BA18CA19DA10E9466
:1029B0005610611571058105910529F1DC01CB01E6
:1029C0008D0D911DA11DB11D8EA39FA3A8A7B9A711
:1029D0002E893F893170C201821B930B67018E15CE
:1029E0009F0508F46C014EA15FA168A579A581142B
:1029F000910419F480E090E001C0C30186010E94B7
:102A0000C20F892B21F0198281E090E020C08E89CD
:102A10009F89A88DB98D8C0D9D1DA11DB11D8E8B1B
:102A20009F8BA88FB98F6C0C7D1CEC18FD08F501ED
:102A3000808191818C0D9D1D918380837ECF80E06C
:102A400090E005C085E090E002C084E090E0DF9176
:102A5000CF911F910F91FF90EF90DF90CF90BF909B
:102A6000AF909F908F907F906F905F904F90089560
:102A70004F925F926F927F928F929F92AF92BF928E
:102A8000CF92DF92EF92FF920F931F93CF93DF933A
:102A90006C018B015A01C091A309D091A409FA01DC
:102AA00011821082209709F4D3C0898180FFD3C09E
:102AB00080746115710581F4882351F040E050E085
:102AC000BA0180E090E00E942010892B09F093C0A9
:102AD00089818F7B8983B9C081110AC08E899F89C2
:102AE000A88DB98D88279E7F8E8B9F8BA88FB98FDD
:102AF0008A8D9B8DAC8DBD8D4E895F89688D798D5A
:102B0000841B950BA60BB70BA80160E070E084173F
:102B10009507A607B70708F48C01812C32E0932EA5
:102B200045C0AB01BC014F0D511D611D711D4EA370
:102B30005FA368A779A780E090E00E942010892B0E
:102B400009F059C08981806489838E899F89917039
:102B50009401281B390B78012017310708F47901FB
:102B60002701612C712CB301A201C6010E94201023
:102B7000892B09F040C08E899F89A88DB98D840D5D
:102B8000951DA61DB71D8E8B9F8BA88FB98FCE0C60
:102B9000DF1C0E191F09F501208131812E0D3F1D0B
:102BA000318320839170892B09F442C001151105EE
:102BB00009F44BC08E899F89A88DB98D9C01317015
:102BC000232B19F6FA80FA94AC01BD0129E0769521
:102BD0006795579547952A95D1F7F42281F06AA118
:102BE0007BA18CA19DA10E945610611571058105E4
:102BF000910509F096CF198281E090E02EC0892BD3
:102C00008A2B8B2B29F46E8D7F8D88A199A106C00C
:102C10006AA17BA18CA19DA10E94D8106230710590
:102C20008105910540F36AA37BA38CA39DA3D7CF15
:102C300040E050E0BA0180E090E00E942010892B33
:102C4000D1F689818F7B8983B1CF80E090E005C088
:102C500085E090E002C084E090E0DF91CF911F9189
:102C60000F91FF90EF90DF90CF90BF90AF909F902B
:102C70008F907F906F905F904F9008952F923F922A
:102C80004F925F926F927F928F929F92AF92BF927C
:102C9000CF92DF92EF92FF920F931F93CF93DF9328
:102CA00000D000D0CDB7DEB79B012090A3093090B3
:102CB000A4092114310409F4EEC0D10111964C91FC
:102CC000119740FFEBC05A964D915D916D917C91AB
:102CD0005D9769017C014C155D056E057F0510F45B
:102CE0006A017B01F10146885788608C718C168AD5
:102CF000178A108E118EC114D104E104F10409F475
:102D0000D0C08280912CA12CB12C59E0880C991C48
:102D1000AA1CBB1C5A95D1F74114510461047104DB
:102D2000D9F1B1E04B1A510861087108C701B60129
:102D30006150710981099109A50194010E94D61C75
:102D400029833A834B835C83C301B201A5019401BB
:102D50000E94D61C89819A81AB81BC81821793071E
:102D6000A407B507C8F088279927DC0188199909B5
:102D7000AA09BB0984219521A621B721F101868BDF
:102D8000978BA08FB18FC81AD90AEA0AFB0A62A1F1
:102D900073A184A195A13AC0D1015E966D917D91F8
:102DA0008D919C919197F10162A373A384A395A344
:102DB0002DC00E94D810623071058105910560F127
:102DC000D10116960D911D912D913C911997601787
:102DD00071078207930700F5D10192966D937D9359
:102DE0008D939C93959756960D911D912D913C91A5
:102DF0005997080D191D2A1D3B1DF101068B178BD4
:102E0000208F318FC818D908EA08FB088C149D045C
:102E1000AE04BF0470F203C0F10111821AC0D101E7
:102E200056968D909D90AD90BC9059978C0C9D1CA2
:102E3000AE1CBF1CF101868A978AA08EB18E0E94BB
:102E40005610611571058105910531F4D101119676
:102E50001C9281E090E027C07501640149E0F6947E
:102E6000E794D794C7944A95D1F7F101028110E015
:102E700001501109222717FD2095322FC022D1229F
:102E8000E222F322C60ED71EE81EF91EC6A2D7A262
:102E9000E0A6F1A606C085E090E005C084E090E0E1
:102EA00002C080E090E00F900F900F900F90DF91A4
:102EB000CF911F910F91FF90EF90DF90CF90BF9037
:102EC000AF909F908F907F906F905F904F903F90CA
:102ED0002F9008950F931F93CF93DF93CDB7DEB755
:102EE000AC970FB6F894DEBF0FBECDBF8C01AB011F
:102EF0008091A3099091A409892BE9F0CE018196D4
:102F0000F80193838283BE016F5F7F4FC8010E94E7
:102F1000EF110097C9F48981882399F08C8584FF8B
:102F20000DC0CE0101960E948110F8016483758363
:102F30008683978306C085E090E006C083E090E03A
:102F400003C0C8010E949E10AC960FB6F894DEBF75
:102F50000FBECDBFDF91CF911F910F910895CF92FA
:102F6000DF92EF92FF920F931F93CF93DF93CDB732
:102F7000DEB7AC970FB6F894DEBF0FBECDBF7C01B5
:102F80006B018091A3099091A409892B09F4C8C011
:102F9000CE018196D70113969C938E93129761155B
:102FA000710519F083E090E023C0C7010E949E10D4
:102FB000C0C0F701208131812F70332785E0220FB7
:102FC000331F8A95E1F700E210E0CE0101960E94DE
:102FD000C20F892B09F0A7C08981882309F4A6C0F4
:102FE0009C85853E91F4C7010E943A110097A1F497
:102FF000D7011C964D915D916D917C911F97411564
:10300000510561057105A9F605C08E3261F393FD86
:10301000EACF0AC0009741F0F7011486158616869C
:10302000178683309105A9F4F6013996D7011C96CD
:103030004D915D916D917C911F97452B462B472BB0
:1030400009F464C0CE010196DF01AE01475F5F4F16
:1030500010C0009709F06DC0E7CF653009F465EE48
:103060009D012F5F3F4FF9016C938417950739F04D
:10307000D901FC016191CF01603279F7FD01298509
:10308000203289F08EE28083CF01029621832A8547
:10309000203229F0019622832B85203211F4FC0185
:1030A00002C0238334968C85D60118968C9388A110
:1030B0004F8D50E060E070E0BA0155274427782B2F
:1030C0008D8D482B8E8D90E0982F8827A0E0B0E062
:1030D000482B592B6A2B7B2BD6014D935D936D9317
:1030E0007C9313978A8D90E0982F8827298D822BC7
:1030F00015969C938E931497888D90E0982F88272F
:103100002F89822B17969C938E9316971082C70156
:103110000E943A118330910561F480E090E009C08B
:1031200085E090E006C081E090E076CF83E090E01B
:1031300073CFAC960FB6F894DEBF0FBECDBFDF9154
:10314000CF911F910F91FF90EF90DF90CF90089556
:1031500080910501882359F01092C50080E4809386
:10316000C40086E08093C20088E18093C100089586
:1031700090910501992331F09091C00095FFFCCF0B
:103180008093C6000895CF92DF92EF92FF92CF9383
:10319000DF936B017C0180910501882391F0C0E0F1
:1031A000D0E0D701C6010C2E04C0B595A795979520
:1031B00087950A94D2F70E94B8182896C032D10594
:1031C00081F7DF91CF91FF90EF90DF90CF9008953E
:1031D000CF93DF9320910501222339F0EC018991EF
:1031E000882319F00E94B818FACFDF91CF91089583
:1031F0004F925F926F927F928F929F92AF92BF9207
:10320000CF92DF92EF92FF92CF9349EE59E06CE0BC
:1032100070E08CEF99E00E946414892B09F010C1D2
:103220008091E9099091EA090C9709F00BC120916E
:10323000070A8091060A90E0A0E0B0E0DC0199273F
:103240008827B22B2091040A822B4091050A50E076
:10325000542F442760E070E0842B952BA62BB72BCE
:1032600087359144A645B54409F0ECC070EA872E35
:1032700075E2972E76E2A72EB12CE4EB4E2EE4EC0D
:103280005E2EE4E06E2E712C49EE59E068E070E0AD
:103290008CEF99E00E9464148091E9099091EA0909
:1032A000089709F0CFC08091030AC090020AD12C80
:1032B000E12CF12C7601DD24CC24F82A8091000A3F
:1032C000C82A8091010A90E0982F8827A0E0B0E0FA
:1032D000C82AD92AEA2AFB2A2091FF098091FE09EF
:1032E00090E0A0E0B0E0DC0199278827B22B209184
:1032F000FC09822B4091FD0950E0542F442760E0E7
:1033000070E0842B952BA62BB72B8C3429E49207E5
:1033100023E5A20724E5B20709F483C030F486361A
:103320009D46A447B04289F08DC0843621E69207BD
:1033300024E7A20721E6B20709F470C08636914659
:10334000A346B44709F46DC07DC0D701C6014097BC
:10335000A109B10985359105A105B10508F072C033
:1033600049EE59E0B6018CEF99E00E946414809117
:10337000E9099091EA09A0E0B0E08C159D05AE0541
:10338000BF0509F05FC08091FC09813009F05AC087
:103390008091FE099FEF980F923008F053C091E0A2
:1033A000823009F090E08091FC0D90FB80F98093D1
:1033B000FC0D80910A0A883019F0803109F042C072
:1033C0008093FD0DC091FC0DCD7FC093FC0DC0908E
:1033D000010AD12CDC2CCC248091000AC82AD0927E
:1033E000FF0DC092FE0DE12CF12CC501B401A70127
:1033F00096010E94D61C215031092F3F310561F002
:1034000058F0C301B201A70196010E94D61C2150B9
:103410003109C260C093FC0D27BD36CFB601C7018C
:1034200015C06091160E7091170E8091180E909134
:10343000190E6C0D7D1D8E1D9F1D0E943E1624CF02
:1034400061E001C060E070E080E090E0CF91FF902B
:10345000EF90DF90CF90BF90AF909F908F907F9034
:103460006F905F904F900895EF92FF920F931F938C
:10347000CF93DF93CDB7DEB7C054D1090FB6F89420
:10348000DEBF0FBECDBF8C0180E09EE00E94AE1279
:10349000C8010E9400147C01009709F0F1C00E944D
:1034A000F8186F3F71058105910509F010F4862F1A
:1034B000EBC060E070E0CB010E943E1649EE59E09F
:1034C00060E072E08CEF99E00E94641449EE59E0EC
:1034D00060E072E08CEF9BE00E9464148091FC0D30
:1034E00081FD4BC080E798E00E94E81880EA98E0F0
:1034F0000E94E8184AE0BE016F5F7F4F8091FE0D89
:103500009091FF0D0E94C01D0E94E8188FEA98E07C
:103510000E94E8188091FC0D4AE0BE016F5F7F4F6A
:103520008695817090E00E94C01D0E94E81884EC8E
:1035300098E00E94E8188091FD0D4AE0BE016F5F9F
:103540007F4F90E00E94C01D0E94E8188AED98E02D
:103550000E94E8188091FC0D4AE0BE016F5F7F4F2A
:10356000817090E00E94C01D0E94E81880E798E0FA
:103570000E94E81885B582604AC080E798E00E9402
:10358000E81880EA98E00E94E8184AE0BE016F5F00
:103590007F4F8091FE0D9091FF0D0E94C01D0E94F3
:1035A000E8188FEA98E00E94E8188091FC0D4AE044
:1035B000BE016F5F7F4F8695817090E00E94C01DB5
:1035C0000E94E81884EC98E00E94E8188091FD0DB4
:1035D0004AE0BE016F5F7F4F90E00E94C01D0E94D5
:1035E000E8188AED98E00E94E8188091FC0D4AE006
:1035F000BE016F5F7F4F817090E00E94C01D0E94EE
:10360000E81880E798E00E94E81885B5836085BDDA
:103610008AB180638AB911E08091FB098823E1F3C4
:103620008091E809812790E0982F8827990F49EE2B
:1036300059E060E072E08450964F0E9464147C016F
:103640008091E9099091EA098115924018F0109251
:10365000FB09E2CF8AB18F7C8AB98091FC0D81FD94
:1036600003C085B58D7F02C085B58C7F85BD8FE792
:1036700094E82EE1815090402040E1F700C0000026
:103680008E2D0E94FB058E2DC05CDF4F0FB6F89487
:10369000DEBF0FBECDBFDF91CF911F910F91FF9085
:1036A000EF90089584B1806B84B92C9A8CB58065B5
:1036B0008CBD8DB581608DBD0895CF93DF93CDB75F
:1036C000DEB7C054D1090FB6F894DEBF0FBECDBF30
:1036D0001092C3098091C4098130C9F58CEE98E03D
:1036E0000E94E8186EE37EE08BEE99E00E946A1774
:1036F0000E94FB0562ED79E08BEE99E00E94AF1726
:10370000892BB1F48091DB09882391F08091DA094B
:1037100081FDF0CF6AE079E08BED99E00E94A61D73
:10372000892B41F38091C3098F5F8093C309E2CF56
:103730008FE099E00E94E8188091C3094AE0BE0139
:103740006F5F7F4F90E00E94C01D0E94E818C05C30
:10375000DF4F0FB6F894DEBF0FBECDBFDF91CF9124
:1037600008958091B909823030F46AEA79E08EE3F5
:103770009EE00C949F1D0895CF93DF93CDB7DEB7E5
:10378000C054D1090FB6F894DEBF0FBECDBF0E9462
:10379000B11B0E945D1B9091C409913009F080C05B
:1037A0008091B909813031F48091C30990E00E9481
:1037B000EE0308C081110DC08091A6092091C309B4
:1037C000821720F48F5F8093A6090BC09093A609FF
:1037D00008C0823031F46BED79E081E39EE00E9415
:1037E0009F1D8FE199E00E94E8188091C3094AE08B
:1037F000BE016F5F7F4F90E00E94C01D0E94E818DD
:103800008DE299E00E94E8188091A6094AE0BE0185
:103810006F5F7F4F90E00E94C01D0E94E81880916A
:10382000B9098230E8F580E499E00E94E8186EE377
:103830007EE08BEE99E00E946A170E94FB0562ED24
:1038400079E08BEE99E00E94AF17892B49F58091C2
:10385000DB09882329F18091DA0981FDF0CF6AE044
:1038600079E08BED99E00E94A61D892B41F38091B0
:10387000A5098F5F8093A5099091A6098917F8F291
:103880006BED79E081E39EE00E949F1D8EE599E05B
:103890000E94E81881E39EE00E94E8181092A509B2
:1038A000C05CDF4F0FB6F894DEBF0FBECDBFDF9117
:1038B000CF91089582E08093A9090E9460038091CE
:1038C000BC09823019F481E08093BF098091BB0963
:1038D000823019F481E08093A7091498159880919B
:1038E000B609882369F0813029F48091C8098130B4
:1038F00051F506C0823039F58091C809811123C085
:103900000E94BC1B2FE784E89EE12150804090403C
:10391000E1F700C000006EE978E08EE39EE00E94CF
:10392000941D61E37EE08EE39EE00E94941D88E793
:1039300099E00E94E8188EE39EE00E94E8188EE36A
:103940009EE00E94341A149815988091BC09823028
:1039500011F41092BF098091BB09823011F41092CA
:10396000A70981E08093A9090C946003991B79E071
:1039700004C0991F961708F0961B881F7A95C9F7FF
:1039800080950895AA1BBB1B51E107C0AA1FBB1F4E
:10399000A617B70710F0A61BB70B881F991F5A95DB
:1039A000A9F780959095BC01CD010895A1E21A2E4A
:1039B000AA1BBB1BFD010DC0AA1FBB1FEE1FFF1FD3
:1039C000A217B307E407F50720F0A21BB30BE40B23
:1039D000F50B661F771F881F991F1A9469F760956A
:1039E0007095809590959B01AC01BD01CF01089524
:1039F000EE0FFF1F0590F491E02D09940E94091D20
:103A0000A59F900DB49F900DA49F800D911D112432
:103A10000895A29FB001B39FC001A39F700D811DA7
:103A20001124911DB29F700D811D1124911D0895C7
:103A30008F929F92AF92BF92CF92DF92EF92FF92BE
:103A4000CF93DF93EC01688179818A819B81611535
:103A500071058105910521F464E279ED8BE597E02C
:103A60002DE133EF41E050E00E94FD1D49015A0174
:103A70009B01AC01A7EAB1E40E94FE1C6B017C0132
:103A8000ACEEB4EFA50194010E941F1EC60ED71E16
:103A9000E81EF91EF7FE06C081E0C81AD108E10849
:103AA00080E8F80AC882D982EA82FB82C6019F7741
:103AB000DF91CF91FF90EF90DF90CF90BF90AF90CC
:103AC0009F908F9008950E94181D089580E091E0C6
:103AD0000E94181D0895A0E0B0E08093000190932B
:103AE0000101A0930201B09303010895FC0188270E
:103AF0009927E89421912032E9F3293010F02E30F3
:103B0000C8F32B3241F02D3239F4689404C00E947E
:103B1000CB1D820F911D219120532A30C0F31EF43A
:103B2000909581959F4F0895FB01DC010D90002039
:103B3000E9F7119701900D920020E1F70895FB013C
:103B4000DC0101900D920020E1F70895FB015191F5
:103B50005523A9F0BF01DC014D9145174111E1F753
:103B600059F4CD010190002049F04D9140154111CB
:103B7000C9F3FB014111EFCF81E090E00197089577
:103B8000BB274A3031F4992322F4BDE29095819508
:103B90009F4F0C94D41D7AE0979F902D879F802D86
:103BA000910D11240895BB27FB015527AA27880FE3
:103BB000991FAA1FA41710F0A41B83955051B9F7A1
:103BC000A05DAA3308F0A95DA193009779F7B11120
:103BD000B1931192CB010C94ED1DDC01FC01672F18
:103BE00071917723E1F7329704C07C916D937083D4
:103BF0006291AE17BF07C8F30895052E97FB1EF418
:103C000000940E94141E57FD07D00E94D61C07FC8A
:103C100003D04EF40C94141E509540953095219588
:103C20003F4F4F4F5F4F08959095809570956195E8
:103C30007F4F8F4F9F4F0895B7FF0C94FE1C0E943B
:0C3C4000FE1C821B930B0895F894FFCF2C
:103C4C000100000001010A0D000A0D202F2F2F2F5B
:103C5C002F2F2F2F2F2F2F2F2F2F2F2F525443201B
:103C6C0054696D652F2F2F2F2F2F2F2F2F2F2F2F85
:103C7C002F2F2F2F000A0D204461794F6657656551
:103C8C006B3A20000A0D205365636F6E643A200076
:103C9C000A0D204D696E7574653A20000A0D204896
:103CAC006F75723A2000466F6C646572000A0D20C5
:103CBC0053656C656374656420666F6C6465722013
:103CCC003A004C6F77506F776572000A0D204C6F7D
:103CDC0077506F776572203D2000566F6C756D655F
:103CEC00000A0D20566F6C756D65203D20004272E8
:103CFC0065616B5365636F6E64000A0D20427265DB
:103D0C00616B5365636F6E64203D20004272656188
:103D1C006B4D696E757465000A0D20427265616B9E
:103D2C004D696E757465203D20005475726E4F663A
:103D3C0066000A0D205475726E4F6666203A204E4E
:103D4C006F6E65000A0D205475726E4F6666203AD0
:103D5C0020466F724E69676874000A0D20547572A4
:103D6C006E4F6666203A20466F72446179000A0DE8
:103D7C0020536F756E64203A204E6F726D616C002B
:103D8C000A0D20536F756E64203A2052616E646F79
:103D9C006D0046726F6D46696C65000A0D20536F9D
:103DAC00756E64203A2046726F6D66696C650042D0
:103DBC007265616B54696D65000A0D204272656114
:103DCC006B54696D65203A204E6F726D616C000A00
:103DDC000D20427265616B54696D65203A20526109
:103DEC006E646F6D0052656C6179000A0D2052652E
:103DFC006C6179203A204F6666000A0D2052656C82
:103E0C006179203A2057697468536F756E64004C61
:103E1C006564000A0D204C6564203A204F666600EC
:103E2C000A0D204C6564203A2057697468536F75ED
:103E3C006E64000A0D2046525F4F4B000A0D20465F
:103E4C00525F4449534B5F455252000A0D20465273
:103E5C005F4E4F545F5245414459000A0D20465263
:103E6C005F4E4F5F46494C45000A0D2046525F4E4F
:103E7C004F5F50415448000A0D2046525F4E4F543C
:103E8C005F4F50454E4544000A0D2046525F4E4F41
:103E9C00545F454E41424C4544000A0D2046525F4A
:103EAC004E4F5F46494C4553595354454D000A0DEE
:103EBC00205365744461794F665765656B203A20D1
:103ECC0053756E646179000A0D20536574446179F1
:103EDC004F665765656B203A204D6F6E64617900B3
:103EEC000A0D205365744461794F665765656B20E4
:103EFC003A2054756573646179000A0D205365741A
:103F0C004461794F665765656B203A205765646E3E
:103F1C006573646179000A0D205365744461794FAF
:103F2C00665765656B203A205468757273646179C5
:103F3C00000A0D205365744461794F665765656BB3
:103F4C00203A20467269646179000A0D2053657429
:103F5C004461794F665765656B203A2053617475DF
:103F6C007264617900486F7572000A0D20486F7594
:103F7C0072203D20000A0D204D696E757465203D40
:103F8C0020000A0D2074696D652073656E6465648C
:103F9C0020746F20525443000A0D2070665F6C73BE
:103FAC0065656B0020202020202020202020202050
:103FBC0020202020202020202020202020202020F5
:103FCC002020202020202020202020202020200005
:103FDC000A0D2070665F7772697465000A0D207097
:103FEC00665F6F70656E000A0D2070665F726561AA
:103FFC0064000A0D202F2F2F2F2F2F2F2F2F2F2F15
:10400C002F2F2F2F2F2F2F2F2F2F2F2F2F2F2F2FB4
:10401C002F2F2F2F2F2F2F2F2F2F2F2F2F2F434F70
:10402C004E464947000A0D207A616C61646F7761D6
:10403C006E6F20434F4E4649472E545854000A0D7C
:10404C0020747279696E6720746F206F70656E20B2
:10405C0054494D452E545854000A0D206272616B20
:10406C0020706C696B752054494D452E5458540082
:10407C000A0D202F2F2F2F2F2F2F2F2F2F2F2F2F9A
:10408C002F2F2F2F2F2F2F2F2F2F2F2F2F2F2F2F34
:10409C002F2F2F2F2F2F2F2F2F2F2F2F42454749C9
:1040AC004E2054494D45000A0D202F2F2F2F2F2F16
:1040BC002F2F2F2F2F2F2F2F2F2F2F2F2F2F2F2F04
:1040CC002F2F2F2F2F2F2F2F2F2F2F2F2F2F2F2FF4
:1040DC002F2F2F454E442054494D45000A0D206981
:1040EC006E204C6F61644F6E54696D657346696CDC
:1040FC006520212121212121212121212121212161
:10410C00212121000A0D204C6F61644F6E54696DA2
:10411C00657346696C65202D3E2070665F6F706517
:10412C006E6469723A20000A0D2046732E6673691C
:10413C007A65203D20000A0D206272616B20706C44
:10414C00696B75204F4E54494D45532E54585400AD
:10415C000A0D202F2F2F2F2F2F2F2F2F2F2F2F2FB9
:10416C002F2F2F2F2F2F2F2F2F2F2F2F2F2F2F2F53
:10417C002F2F2F2F2F2F2F2F2F2F2F2F42454749E8
:10418C004E204F4E54494D45530053554E444159C2
:10419C00004D4F4E4441590054554553444159002C
:1041AC005745444E45534441590054485552534485
:1041BC0041590046524944415900534154555244C7
:1041CC004159000A0D2053616D65206461793A20D4
:1041DC00000A0D2053616D6520686F75723A2000DE
:1041EC000A0D2053616D65206D696E7574653A20FA
:1041FC00000A0D20646972656374696F6E20746FB8
:10420C0020706C61793A20000A0D206E6F20646971
:10421C0072656374696F6E2C20706C6179696E675E
:10422C00000A0D204E6F726D616C20736F756E6499
:10423C00000A0D2052616E646F6D20736F756E6491
:10424C00000A0D202F2F2F2F2F2F2F2F2F2F2F2FF7
:10425C002F2F2F2F2F2F2F2F2F2F2F2F2F2F2F2F62
:10426C002F2F2F2F2F2F2F2F2F2F2F2F2F454E4408
:10427C00204F4E54494D4553000A0D206E6F20536C
:10428C00442063617264000A0D2020747279696E97
:10429C006720746F206D6F756E74205344206361BA
:1042AC007264000A0D2053442063617264206D6FA8
:1042BC00756E746564000A0D2054000A0D205000C0
:1042CC000A0D204C000A0D20426C6F636B466C612A
:1042DC0067203D20000A0D202B000A0D202D000A1E
:1042EC000D20542070726573736564000A0D2050A4
:1042FC002050726573736564000A0D204C20507257
:10430C006573736564000A0D202B205072657373FE
:10431C006564000A0D202D2070726573736564004E
:10432C000A0D20427265616B54696D65203D200059
:10433C00808182838485868788898A8B8C8D8E8FF9
:10434C00909192939495969798998A9B8C8D8E8F39
:10435C00A0A1A2A3A4A5A6A7A8A9AAABACADAEAFD9
:10436C00B0B1B2A3B4B5B6B7B8A5AABBBCBDBCAF0F
:10437C00C0C1C2C3C4C5C6C7C8C9CACBCCCDCECFB9
:10438C00D0D1D2D3D4D5D6D7D8D9DADBDCDDDEDFA9
:10439C00C0C1C2C3C4C5C6C7C8C9CACBCCCDCECF99
:1043AC00D0D1D2D3D4D5D6F7D8D9DADBDCDDDEFF49
:1043BC000A0D202F2F2F2F2F2F2F2F2F2F2F2F2F57
:1043CC002F2F2F2F2F2F2F2F2F2F2F2F2F2F2F2FF1
:1043DC002F2F2F2F2F2F2F2F2F2F2F2F2F2F2F0010
:1043EC000A0D20464C4147532E6B687A3A20000A3E
:1043FC000D20464C4147532E7072657363616C659A
:10440C00723A20000A0D20464C4147532E726573B8
:10441C006F6C7574696F6E3A20000A0D20464C4122
:10442C0047532E73746572656F3A20000A0D204352
:10443C006F756E74536F6E6773202D3E2070665FC0
:10444C006F70656E6469723A20002E574156000AEF
:10445C000D20536F6E67436F756E74203D20000AFC
:10446C000D204D6178536F6E67203D20000A0D20A2
:10447C0043686F6F73656E20536F6E67203D20002D
:10448C000A0D2043686F6F7365536F6E67202D3E66
:10449C002070665F6F70656E6469723A20000A0D59
:1044AC002053656C656374656420736F6E67206E52
:1044BC00616D65203A2020000A0D207374726361CF
:1044CC00742053656C65637465644469723A2000AA
:00000001FF
